S017000045786572636963655F416C73746F6D2E7372656316
S113000045C0000070C200005EC000005CC000007B
S11300105AC0000058C0000056C0000054C0000080
S113002052C0000050C000004EC000004CC0000090
S11300304AC0000048C0000046C0000044C00000A0
S113004042C0000040C0000027C200003CC00000C5
S11300503AC0000038C0000036C0000034C00000C0
S113006032C0000030C000002EC000002CC00000D0
S11300702AC0000028C0000026C0000024C00000E0
S113008022C0000020C000001EC0000011241FBEBA
S1130090CFEFD0E4DEBFCDBF11E0A0E0B1E0EAEAEB
S11300A0F7E000E00BBF02C007900D92AE33B1073A
S11300B0D9F721E0AEE3B1E001C01D92A935B20742
S11300C0E1F745D170C39CCF8AB180688AB98AB1FF
S11300D08B7F8AB98BB184608BB9E9E6F0E08081CB
S11300E08260808380818E7F80838DB381608DBBAD
S11300F07894089582B1846082B900C082B18B7F04
S113010082B90895CF93C82F662321F082B181600C
S113011082B903C082B18E7F82B982B18D7F82B9E8
S113012081B1886081B981B1806181B981B1806216
S113013081B981B1806481B982B18F7B82B982B186
S11301408F7D82B982B18F7E82B982B1877F82B975
S1130150CC231CF482B1806482B9C6FF03C082B18F
S1130160806282B9C5FF03C082B1806182B9C4FFD5
S113017003C082B1886082B9BDDF82B18F7B82B94E
S113018082B18F7D82B982B18F7E82B982B1877F3D
S113019082B9C3FF03C082B1806482B9C2FF03C0C5
S11301A082B1806282B9C1FF03C082B1806182B929
S11301B0C0FF03C082B1886082B99CDF82B18860CD
S11301C082B982B1806182B982B1806282B982B11E
S11301D0806482B9CF910895882321F082B181602F
S11301E082B903C082B18E7F82B982B1826082B942
S11301F081B1877F81B981B18F7E81B981B18F7DD2
S113020081B981B18F7B81B982B1846082B900C028
S1130210039902C080E001C080E1049980620599DD
S113022080640699806892B19B7F92B900C092B1B4
S1130230946092B900C00399816004998260059921
S113024084600699886092B19B7F92B9089580E09A
S1130250C3DF8823E4F300C080E0BECF0895CF93CA
S1130260C82FF5DF60E08C2F4DDFCF910895611129
S113027003C08058F4CF08958054F1CF089581E0ED
S1130280EECF0895CF93C82FE2DFCA3041F4803413
S113029010F480E401C080E08058E1DF03C061E035
S11302A08C2F30DFCF910895CF93DF93FC0102C0F0
S11302B0E9DFFE01EF01219680818111F9CFDF9101
S11302C0CF9108951F93CF93DF93182F81B181604D
S11302D081B981B1826081B981B1846081B981B110
S11302E0886081B981B1806181B981B1806281B94D
S11302F081B1806481B980EA9FE00197F1F782B10E
S1130300806182B982B1886082B9F4DE80EE94E0C3
S11303100197F1F7EFDEC0E1D0E0CE010197F1F7EC
S1130320E9DECE010197F1F782B1877F82B9E2DE7F
S11303302197F1F788E293DF88E091DFA0DF86E080
S11303408EDF812F8CDFDF91CF911F91089513D120
S1130350BBDE8CE0B7DF0ED080E090E0089507C0EC
S1130360E9EFF0E03197F1F700C000000197009742
S1130370B9F70895EEE6F0E08081816080837FDF45
S113038084E091E091DF61E080E071DF81E191E060
S11303908BDF81E080935201809152018130E1F33F
S11303A06EDF8BE191E080DF8091550190915601E1
S11303B05FD1EEE6F0E080818E7F808356D169EBD9
S11303C07BE0E5D090935401809353018854944F7B
S11303D09093420180934101C2DF47D161EA7FE0FB
S11303E0D6D0909354018093530188519C4F90939D
S11303F04401809343018BB180688BB980914301A0
S113040090914401ACDF8BB18F778BB938DF8FE1EA
S113041091E04ADF81E080934F0180914F01813068
S1130420E1F381E080934001809140018130E1F368
S1130430209155013091560130933F0120933E01A4
S11304408091430190914401821B930B909351013D
S11304508093500114DF80E391E026DF61E080E0C7
S113046006DF4AE065E471E080915001909151010A
S11304700AD185E491E018DF61E085E0F8DE8BE3E2
S113048091E012DF2FE181EA97E021508040904013
S1130490E1F700C000006ECF1F920F920FB60F92CB
S11304A011248F939F93AF93BF93809155019091A3
S11304B05601A0915701B09158010196A11DB11D9B
S11304C08093550190935601A0935701B09358011E
S11304D083E886BDBF91AF919F918F910F900FBE1E
S11304E00F901F9018951F920F920FB60F92112420
S11304F00BB60F928F93EF93FF938091520181304B
S113050011F41092520180914F018130B9F4E9E65F
S1130510F0E0808181608083109255011092560131
S11305201092570110925801EEE6F0E0808181604C
S113053080838BB180688BB910924F018091400108
S1130540813079F4E9E6F0E080818E7F8083EEE605
S1130550F0E080818E7F80838BB18F778BB910928E
S11305604001FF91EF918F910F900BBE0F900FBE42
S11305700F901F90189585B58B7F85BD85B58260DA
S113058085BD85B58E7F85BD83E886BD089597FBBF
S1130590072E16F4009406D077FD08D00BD007FC84
S11305A005D03EF4909581959F4F0895709561957F
S11305B07F4F0895AA1BBB1B51E107C0AA1FBB1F95
S11305C0A617B70710F0A61BB70B881F991F5A95DB
S11305D0A9F780959095BC01CD0108958F929F92C3
S11305E0AF92BF92CF92DF92EF92FF92CF93DF93BD
S11305F0EC01688179818A819B816115710581058E
S1130600910521F464E279ED8BE597E02DE133EF78
S113061041E050E06BD049015A019B01AC01A7EACB
S1130620B1E480D06B017C01ACEEB4EFA501940180
S113063085D0DC01CB018C0D9D1DAE1DBF1DB7FF08
S113064003C00197A109B04888839983AA83BB8317
S11306509F77DF91CF91FF90EF90DF90CF90BF9085
S1130660AF909F908F900895B9CF80E091E0B6CF7E
S1130670A0E0B0E08093000190930101A0930201F7
S1130680B09303010895BB274A3031F4992322F42F
S1130690BDE2909581959F4F01C0BB27FB01552773
S11306A0AA27880F991FAA1FA41710F0A41B8395CB
S11306B05051B9F7A05DAA3308F0A95DA193009742
S11306C079F7B111B1931192CB0100C0DC01FC01A7
S11306D0672F71917723E1F7329704C07C916D9372
S11306E070836291AE17BF07C8F30895052E97FB78
S11306F016F400940FD057FD05D024D007FC02D087
S113070046F408C050954095309521953F4F4F4F82
S11307105F4F089590958095709561957F4F8F4FA9
S11307209F4F089531D0A59F900DB49F900DA49F25
S1130730800D911D11240895B7FFF4CFF3DF821BC0
S1130740930B0895A1E21A2EAA1BBB1BFD010DC039
S1130750AA1FBB1FEE1FFF1FA217B307E407F5076D
S113076020F0A21BB30BE40BF50B661F771F881F49
S1130770991F1A9469F760957095809590959B01DF
S1130780AC01BD01CF010895A29FB001B39FC00188
S1130790A39F700D811D1124911DB29F700D811DA9
S10D07A01124911D0895F894FFCF71
S11307AA010000004170707579657A20706F757266
S11307BA00636F6D6D656E636572002E2E2E0041A7
S11307CA20746F69206465206A6F75657220210040
S11107DA526573756C746174203A006D73007F
S9030000FC
